:100000000C942A000C943C000C943C000C943C0092
:100010000C943C000C943C000C943C000C943C0070
:100020000C943C000C943C000C943C000C943C0060
:100030000C943C000C943C000C943C000C943C0050
:100040000C943C000C943C000C943C000C943C0040
:100050000C943C0011241FBECFE5D8E0DEBFCDBF1D
:1000600010E0A0E6B0E001C01D92A03AB107E1F7B0
:100070000E946D010C946A040C9400002F923F9230
:100080004F925F926F927F928F929F92AF92BF92A8
:10009000CF92DF92EF92FF920F931F93DF93CF9354
:1000A000CDB7DEB7C258D0400FB6F894DEBF0FBE52
:1000B000CDBF1B012C01CA01B9018E010F5F1F4F7B
:1000C000F80120E030E02730310524F4108211825D
:1000D000128213822730310529F41D8E1E8E1F8E49
:1000E00018A212C02830310541F419A21AA21BA28D
:1000F0001CA22F5F3F4F3496E6CF2930310524F004
:1001000010821182128213822F5F3F4F349620316A
:100110003105C9F60E949C029B01AC010E947D033F
:10012000962E672E882E792E0F2EF1E4CF2EDD2409
:10013000F02DCC0EDD1E56017601F8016191719112
:10014000819191918F010E949C029B01AC010E94C0
:100150007D03292D362D482D572D0E940C020E941B
:10016000E4030E947002F70161937193819391936C
:100170007F010A151B0509F7FE01E35AFF4F608155
:1001800071818281938127E531E040E050E00E9457
:1001900029043B014C0161E070E080E090E0A201A5
:1001A00091010E94480419012A010F2EF0E6AF2E9A
:1001B000F0E0BF2EF02DCE018F579F4FCF57DF4F6E
:1001C00099838883C158D040F601619171918191E2
:1001D00091916F0127E531E040E050E00E94290451
:1001E0006619770988099909A20191010E944804BA
:1001F000CA01B9010E949C027B018C010E94D902B4
:100200009B01AC01C801B7010E940B029B01AC012C
:1002100060E070E080E89FE30E940B029B01AC016C
:100220000E940C022BED3FE049E450E40E947D0364
:100230000E947002F50161937193819391935F0124
:10024000CF57DF4F88819981C158D040C816D90651
:1002500009F0BACFCE57DF4F0FB6F894DEBF0FBE0E
:10026000CDBFCF91DF911F910F91FF90EF90DF9065
:10027000CF90BF90AF909F908F907F906F905F9046
:100280004F903F902F9008950E949C022DEA3EE5EA
:1002900044ED54E40E947D030E94700208950E9480
:1002A0009C0223E839EF42E254E40E947D030E945D
:1002B0007002862F972F0895BB9ABA9A8FEF8ABB48
:1002C00084BBC39AC29A8BBB85BB08958FEF8BBB4F
:1002D00085BB88B318BAC39A08950F931F93CF9321
:1002E000DF9368E873E180E090E00E9444019B01A5
:1002F000AC012070307C5F70012E1EE05695479552
:10030000379527951A95D1F7102D7F73EB01CF6F95
:10031000DF6489010F6F1F6468E873E180E090E09B
:1003200022E030E040E050E00E943E000E945C018C
:100330008BB31BBA20E130E080E090E8C39AAC01B7
:10034000407051724115510511F0C29A02C048B374
:1003500018BA48B318BA969587952150304071F76E
:10036000D89A0E9466011BBA15BA20E130E080E0FD
:1003700090E8C39AAC014C235D234115510511F05F
:10038000C29A02C048B318BA48B318BA969587956E
:100390002150304071F78FEF8BBB85BB0E94660107
:1003A0001BBA15BA20E130E080E090E8C39AAC01B6
:1003B000402351234115510511F0C29A02C048B3A0
:1003C00018BA48B318BA969587952150304071F7FE
:1003D0008FEF8BBB85BB0E9466010E9466011BBA32
:1003E00015BA20E130E080E090E8C39A95FF02C0A2
:1003F000C29A02C048B318BA48B318BA96958795FE
:100400002150304091F78FEF8BBB85BBB89AC09AD3
:1004100088B318BAFCCF5058BB27AA270ED01CC1EE
:100420000DD130F012D120F031F49F3F11F41EF4C1
:1004300002C10EF4E095E7FBCFC0E92F1ED180F397
:10044000BA17620773078407950718F071F49EF5D1
:100450004DC10EF4E0950B2EBA2FA02D0B01B90162
:1004600090010C01CA01A0011124FF27591B99F02A
:10047000593F50F4503E68F11A16F040A22F232F36
:10048000342F4427585FF3CF469537952795A79586
:10049000F0405395C9F77EF41F16BA0B620B730B2D
:1004A000840BBAF09150A1F0FF0FBB1F661F771F9E
:1004B000881FC2F70EC0BA0F621F731F841F48F453
:1004C000879577956795B795F7959E3F08F0B3CFD9
:1004D0009395880F08F09927EE0F979587950895C3
:1004E000D4D088F09F5790F0B92F9927B751A0F03A
:1004F000D1F0660F771F881F991F1AF0BA95C9F7B8
:1005000012C0B13081F0F2D0B1E00895EFC0672F92
:10051000782F8827B85F39F0B93FCCF38695779567
:100520006795B395D9F73EF4909580957095619550
:100530007F4F8F4F9F4F0895E89409C097FB3EF47B
:1005400090958095709561957F4F8F4F9F4F992320
:10055000A9F0F92F96E9BB279395F695879577959E
:100560006795B795F111F8CFFAF4BB0F11F460FF5E
:100570001BC06F5F7F4F8F4F9F4F16C0882311F0B6
:1005800096E911C0772321F09EE8872F762F05C0CA
:10059000662371F096E8862F70E060E02AF09A9565
:1005A000660F771F881FDAF7880F9695879597F95A
:1005B000089585D080F09F3740F491110EF097C0D8
:1005C00060E070E080E89FEB089526F41B16611D43
:1005D000711D811D07C021C097F99F6780E870E0F9
:1005E00060E00895882371F4772321F09850872BD9
:1005F000762F07C0662311F499270DC09051862BE2
:1006000070E060E02AF09A95660F771F881FDAF78E
:10061000880F9695879597F908959F3F31F09150EF
:1006200020F4879577956795B795880F911D9695D6
:10063000879597F908959FEF80EC089500240A9418
:100640001616170618060906089500240A941216AD
:100650001306140605060895092E0394000C11F4E0
:10066000882352F0BB0F40F4BF2B11F460FF04C08D
:100670006F5F7F4F8F4F9F4F089557FD9058440FE6
:10068000551F59F05F3F71F04795880F97FB991FF1
:1006900061F09F3F79F087950895121613061406AE
:1006A000551FF2CF4695F1DF08C01616170618063B
:1006B000991FF1CF86957105610508940895E5DFCE
:1006C000A0F0BEE7B91788F4BB279F3860F4161670
:1006D000B11D672F782F8827985FF7CF869577957C
:1006E0006795B11D93959639C8F30895E894BB2793
:1006F00066277727CB0197F908950BD0ADCF9EDF02
:1007000028F0A3DF18F0952309F066CF94CF1124C9
:10071000EECFB3DFA0F3959FD1F3950F50E0551FB7
:10072000629FF001729FBB27F00DB11D639FAA2746
:10073000F00DB11DAA1F649F6627B00DA11D661F95
:10074000829F2227B00DA11D621F739FB00DA11DB6
:10075000621F839FA00D611D221F749F3327A00D70
:10076000611D231F849F600D211D822F762F6A2F0C
:1007700011249F5750408AF0E1F088234AF0EE0F91
:10078000FF1FBB1F661F771F881F91505040A9F79E
:100790009E3F510570F020CFAACF5F3FECF3983E0B
:1007A000DCF3869577956795B795F795E7959F5F05
:1007B000C1F7FE2B880F911D9695879597F908959F
:1007C00011F40EF438CF29CF60DFD0F39923D9F399
:1007D000CEF39F57550B87FF35D00024A0E640EAA3
:1007E000900180585695979528F4805C660F771F86
:1007F000881F20F026173707480730F4621B730B59
:10080000840B202931294A2BA6951794079420257B
:1008100031254A2758F7660F771F881F20F02617C3
:100820003707480730F4620B730B840B200D311D22
:10083000411DA09581F7B901842F9158880F969595
:100840008795089591505040660F771F881FD2F703
:100850000895629FD001739FF001829FE00DF11D0A
:10086000649FE00DF11D929FF00D839FF00D749F2A
:10087000F00D659FF00D9927729FB00DE11DF91FD6
:10088000639FB00DE11DF91FBD01CF011124089533
:10089000A1E21A2EAA1BBB1BFD010DC0AA1FBB1F84
:1008A000EE1FFF1FA217B307E407F50720F0A21BF6
:1008B000B30BE40BF50B661F771F881F991F1A9463
:1008C00069F760957095809590959B01AC01BD018D
:0808D000CF010895F894FFCF59
:00000001FF
